:0A0000000C942F000C9400000C94E7
:10000A0000000C9400000C9400000C9400000C9466
:10001A0000000C9400000C9400000C9400000C9456
:10002A005F000C9400000C9400000C9400000C94E7
:10003A0000000C9400000C9400000C9400000C9436
:10004A0000000C9400000C94000000000200040060
:10005A0054000000F894EE27ECBBF1E0FBBFEBBFC5
:10006A00E5BFF8E1F1BDE1BD8DE0A2E0BB27ED936C
:10007A008A95E9F780E098E0A0E6ED930197E9F721
:10008A00E6E5F0E085919591009761F0A591B5912B
:10009A0005901590BF01F00105900D920197E1F7C7
:1000AA00FB01F0CFEFE5EDBFE8E0EEBFC0E6D2E03E
:1000BA000C948000EA93FA93EFB7EA93F20131962F
:1000CA002F01EDE3F0E0E415F50511F4E9E0ECBFEA
:1000DA00EEE3F0E0E415F50549F4C09B02C0C098D0
:1000EA0001C0C09AEFEFECBF44245524E991EFBF59
:1000FA00F991E9911895E0E0E8BBE1E0E7BBECE0B3
:10010A00E3BFE0E0E2BFEFEFECBFE2E0E9BF7894E3
:10011A0003D006D0FECFFFCFE5B7E068E5BF08956C
:10012A00E5B7EF78E5BFEFB778948895EFBF089504
:00000001FF
